{
  "_format": "hh-sol-artifact-1",
  "contractName": "MyEpicNFT",
  "sourceName": "contracts/MyEpicNFT.sol",
  "abi": [
    {
      "inputs": [],
      "stateMutability": "nonpayable",
      "type": "constructor"
    },
    {
      "anonymous": false,
      "inputs": [
        {
          "indexed": true,
          "internalType": "address",
          "name": "owner",
          "type": "address"
        },
        {
          "indexed": true,
          "internalType": "address",
          "name": "approved",
          "type": "address"
        },
        {
          "indexed": true,
          "internalType": "uint256",
          "name": "tokenId",
          "type": "uint256"
        }
      ],
      "name": "Approval",
      "type": "event"
    },
    {
      "anonymous": false,
      "inputs": [
        {
          "indexed": true,
          "internalType": "address",
          "name": "owner",
          "type": "address"
        },
        {
          "indexed": true,
          "internalType": "address",
          "name": "operator",
          "type": "address"
        },
        {
          "indexed": false,
          "internalType": "bool",
          "name": "approved",
          "type": "bool"
        }
      ],
      "name": "ApprovalForAll",
      "type": "event"
    },
    {
      "anonymous": false,
      "inputs": [
        {
          "indexed": false,
          "internalType": "address",
          "name": "sender",
          "type": "address"
        },
        {
          "indexed": false,
          "internalType": "uint256",
          "name": "tokenId",
          "type": "uint256"
        }
      ],
      "name": "NewEpicNFTMinted",
      "type": "event"
    },
    {
      "anonymous": false,
      "inputs": [
        {
          "indexed": true,
          "internalType": "address",
          "name": "from",
          "type": "address"
        },
        {
          "indexed": true,
          "internalType": "address",
          "name": "to",
          "type": "address"
        },
        {
          "indexed": true,
          "internalType": "uint256",
          "name": "tokenId",
          "type": "uint256"
        }
      ],
      "name": "Transfer",
      "type": "event"
    },
    {
      "inputs": [],
      "name": "TotalMintCount",
      "outputs": [
        {
          "internalType": "uint256",
          "name": "",
          "type": "uint256"
        }
      ],
      "stateMutability": "view",
      "type": "function"
    },
    {
      "inputs": [
        {
          "internalType": "address",
          "name": "to",
          "type": "address"
        },
        {
          "internalType": "uint256",
          "name": "tokenId",
          "type": "uint256"
        }
      ],
      "name": "approve",
      "outputs": [],
      "stateMutability": "nonpayable",
      "type": "function"
    },
    {
      "inputs": [
        {
          "internalType": "address",
          "name": "owner",
          "type": "address"
        }
      ],
      "name": "balanceOf",
      "outputs": [
        {
          "internalType": "uint256",
          "name": "",
          "type": "uint256"
        }
      ],
      "stateMutability": "view",
      "type": "function"
    },
    {
      "inputs": [
        {
          "internalType": "uint256",
          "name": "tokenId",
          "type": "uint256"
        }
      ],
      "name": "getApproved",
      "outputs": [
        {
          "internalType": "address",
          "name": "",
          "type": "address"
        }
      ],
      "stateMutability": "view",
      "type": "function"
    },
    {
      "inputs": [
        {
          "internalType": "address",
          "name": "owner",
          "type": "address"
        },
        {
          "internalType": "address",
          "name": "operator",
          "type": "address"
        }
      ],
      "name": "isApprovedForAll",
      "outputs": [
        {
          "internalType": "bool",
          "name": "",
          "type": "bool"
        }
      ],
      "stateMutability": "view",
      "type": "function"
    },
    {
      "inputs": [],
      "name": "makeAnEpicNFT",
      "outputs": [],
      "stateMutability": "nonpayable",
      "type": "function"
    },
    {
      "inputs": [
        {
          "internalType": "address",
          "name": "",
          "type": "address"
        }
      ],
      "name": "mintedPeople",
      "outputs": [
        {
          "internalType": "uint256",
          "name": "",
          "type": "uint256"
        }
      ],
      "stateMutability": "view",
      "type": "function"
    },
    {
      "inputs": [],
      "name": "name",
      "outputs": [
        {
          "internalType": "string",
          "name": "",
          "type": "string"
        }
      ],
      "stateMutability": "view",
      "type": "function"
    },
    {
      "inputs": [
        {
          "internalType": "uint256",
          "name": "tokenId",
          "type": "uint256"
        }
      ],
      "name": "ownerOf",
      "outputs": [
        {
          "internalType": "address",
          "name": "",
          "type": "address"
        }
      ],
      "stateMutability": "view",
      "type": "function"
    },
    {
      "inputs": [
        {
          "internalType": "uint256",
          "name": "tokenId",
          "type": "uint256"
        }
      ],
      "name": "pickRandomFirstWord",
      "outputs": [
        {
          "internalType": "string",
          "name": "",
          "type": "string"
        }
      ],
      "stateMutability": "view",
      "type": "function"
    },
    {
      "inputs": [
        {
          "internalType": "uint256",
          "name": "tokenId",
          "type": "uint256"
        }
      ],
      "name": "pickRandomSecondWord",
      "outputs": [
        {
          "internalType": "string",
          "name": "",
          "type": "string"
        }
      ],
      "stateMutability": "view",
      "type": "function"
    },
    {
      "inputs": [
        {
          "internalType": "uint256",
          "name": "tokenId",
          "type": "uint256"
        }
      ],
      "name": "pickRandomThirdWord",
      "outputs": [
        {
          "internalType": "string",
          "name": "",
          "type": "string"
        }
      ],
      "stateMutability": "view",
      "type": "function"
    },
    {
      "inputs": [
        {
          "internalType": "address",
          "name": "from",
          "type": "address"
        },
        {
          "internalType": "address",
          "name": "to",
          "type": "address"
        },
        {
          "internalType": "uint256",
          "name": "tokenId",
          "type": "uint256"
        }
      ],
      "name": "safeTransferFrom",
      "outputs": [],
      "stateMutability": "nonpayable",
      "type": "function"
    },
    {
      "inputs": [
        {
          "internalType": "address",
          "name": "from",
          "type": "address"
        },
        {
          "internalType": "address",
          "name": "to",
          "type": "address"
        },
        {
          "internalType": "uint256",
          "name": "tokenId",
          "type": "uint256"
        },
        {
          "internalType": "bytes",
          "name": "_data",
          "type": "bytes"
        }
      ],
      "name": "safeTransferFrom",
      "outputs": [],
      "stateMutability": "nonpayable",
      "type": "function"
    },
    {
      "inputs": [
        {
          "internalType": "address",
          "name": "operator",
          "type": "address"
        },
        {
          "internalType": "bool",
          "name": "approved",
          "type": "bool"
        }
      ],
      "name": "setApprovalForAll",
      "outputs": [],
      "stateMutability": "nonpayable",
      "type": "function"
    },
    {
      "inputs": [
        {
          "internalType": "bytes4",
          "name": "interfaceId",
          "type": "bytes4"
        }
      ],
      "name": "supportsInterface",
      "outputs": [
        {
          "internalType": "bool",
          "name": "",
          "type": "bool"
        }
      ],
      "stateMutability": "view",
      "type": "function"
    },
    {
      "inputs": [],
      "name": "symbol",
      "outputs": [
        {
          "internalType": "string",
          "name": "",
          "type": "string"
        }
      ],
      "stateMutability": "view",
      "type": "function"
    },
    {
      "inputs": [
        {
          "internalType": "uint256",
          "name": "tokenId",
          "type": "uint256"
        }
      ],
      "name": "tokenURI",
      "outputs": [
        {
          "internalType": "string",
          "name": "",
          "type": "string"
        }
      ],
      "stateMutability": "view",
      "type": "function"
    },
    {
      "inputs": [
        {
          "internalType": "address",
          "name": "from",
          "type": "address"
        },
        {
          "internalType": "address",
          "name": "to",
          "type": "address"
        },
        {
          "internalType": "uint256",
          "name": "tokenId",
          "type": "uint256"
        }
      ],
      "name": "transferFrom",
      "outputs": [],
      "stateMutability": "nonpayable",
      "type": "function"
    }
  ],
  "bytecode": "0x608060405260405180610160016040528061012f81526020016200464361012f913960089080519060200190620000389291906200067e565b506040518060c001604052806040518060400160405280600281526020017f492000000000000000000000000000000000000000000000000000000000000081525081526020016040518060400160405280600481526020017f596f75200000000000000000000000000000000000000000000000000000000081525081526020016040518060400160405280600381526020017f486520000000000000000000000000000000000000000000000000000000000081525081526020016040518060400160405280600481526020017f536865200000000000000000000000000000000000000000000000000000000081525081526020016040518060400160405280600581526020017f546865792000000000000000000000000000000000000000000000000000000081525081526020016040518060400160405280600381526020017f57652000000000000000000000000000000000000000000000000000000000008152508152506009906006620001b69291906200070f565b506040518060c001604052806040518060400160405280600481526020017f656174200000000000000000000000000000000000000000000000000000000081525081526020016040518060400160405280600581526020017f77616c6b2000000000000000000000000000000000000000000000000000000081525081526020016040518060400160405280600881526020017f64657374726f792000000000000000000000000000000000000000000000000081525081526020016040518060400160405280600681526020017f737065616b20000000000000000000000000000000000000000000000000000081525081526020016040518060400160405280600681526020017f6472696e6b20000000000000000000000000000000000000000000000000000081525081526020016040518060400160405280600581526020017f6472617720000000000000000000000000000000000000000000000000000000815250815250600a906006620003349291906200070f565b506040518060c001604052806040518060400160405280600581526020017f72616d656e00000000000000000000000000000000000000000000000000000081525081526020016040518060400160405280600881526020017f79616b69736f626100000000000000000000000000000000000000000000000081525081526020016040518060400160405280600581526020017f70697a7a6100000000000000000000000000000000000000000000000000000081525081526020016040518060400160405280600481526020017f726963650000000000000000000000000000000000000000000000000000000081525081526020016040518060400160405280600581526020017f706173746100000000000000000000000000000000000000000000000000000081525081526020016040518060400160405280600781526020017f636869636b656e00000000000000000000000000000000000000000000000000815250815250600b906006620004b29291906200070f565b50348015620004c057600080fd5b506040518060400160405280600981526020017f5371756172654e465400000000000000000000000000000000000000000000008152506040518060400160405280600681526020017f53515541524500000000000000000000000000000000000000000000000000008152508160009080519060200190620005459291906200067e565b5080600190805190602001906200055e9291906200067e565b505050620005ac6040518060400160405280601881526020017f74686973206973206d79204e465420636f6e74726163742e0000000000000000815250620005b260201b620012ff1760201c565b62000930565b6200065281604051602401620005c9919062000844565b6040516020818303038152906040527f41304fac000000000000000000000000000000000000000000000000000000007bffffffffffffffffffffffffffffffffffffffffffffffffffffffff19166020820180517bffffffffffffffffffffffffffffffffffffffffffffffffffffffff83818316178352505050506200065560201b60201c565b50565b60008151905060006a636f6e736f6c652e6c6f679050602083016000808483855afa5050505050565b8280546200068c90620008ba565b90600052602060002090601f016020900481019282620006b05760008555620006fc565b82601f10620006cb57805160ff1916838001178555620006fc565b82800160010185558215620006fc579182015b82811115620006fb578251825591602001919060010190620006de565b5b5090506200070b919062000776565b5090565b82805482825590600052602060002090810192821562000763579160200282015b8281111562000762578251829080519060200190620007519291906200067e565b509160200191906001019062000730565b5b50905062000772919062000795565b5090565b5b808211156200079157600081600090555060010162000777565b5090565b5b80821115620007b95760008181620007af9190620007bd565b5060010162000796565b5090565b508054620007cb90620008ba565b6000825580601f10620007df575062000800565b601f016020900490600052602060002090810190620007ff919062000776565b5b50565b6000620008108262000868565b6200081c818562000873565b93506200082e81856020860162000884565b62000839816200091f565b840191505092915050565b6000602082019050818103600083015262000860818462000803565b905092915050565b600081519050919050565b600082825260208201905092915050565b60005b83811015620008a457808201518184015260208101905062000887565b83811115620008b4576000848401525b50505050565b60006002820490506001821680620008d357607f821691505b60208210811415620008ea57620008e9620008f0565b5b50919050565b7f4e487b7100000000000000000000000000000000000000000000000000000000600052602260045260246000fd5b6000601f19601f8301169050919050565b613d0380620009406000396000f3fe608060405234801561001057600080fd5b50600436106101215760003560e01c806370a08231116100ad578063c20fe05511610071578063c20fe0551461032c578063c575757a1461035c578063c87b56dd1461038c578063de9d132f146103bc578063e985e9c5146103c657610121565b806370a082311461027657806395d89b41146102a6578063a22cb465146102c4578063b187301f146102e0578063b88d4fde1461031057610121565b8063095ea7b3116100f4578063095ea7b3146101c257806323b872dd146101de5780632de38d68146101fa57806342842e0e1461022a5780636352211e1461024657610121565b806301ffc9a7146101265780630375d3f01461015657806306fdde0314610174578063081812fc14610192575b600080fd5b610140600480360381019061013b91906127c7565b6103f6565b60405161014d9190612eeb565b60405180910390f35b61015e6104d8565b60405161016b9190613196565b60405180910390f35b61017c6104ee565b6040516101899190612f06565b60405180910390f35b6101ac60048036038101906101a79190612819565b610580565b6040516101b99190612e5b565b60405180910390f35b6101dc60048036038101906101d7919061278b565b610605565b005b6101f860048036038101906101f39190612685565b61071d565b005b610214600480360381019061020f9190612819565b61077d565b6040516102219190612f06565b60405180910390f35b610244600480360381019061023f9190612685565b610919565b005b610260600480360381019061025b9190612819565b610939565b60405161026d9190612e5b565b60405180910390f35b610290600480360381019061028b9190612620565b6109eb565b60405161029d9190613196565b60405180910390f35b6102ae610aa3565b6040516102bb9190612f06565b60405180910390f35b6102de60048036038101906102d9919061274f565b610b35565b005b6102fa60048036038101906102f59190612819565b610b4b565b6040516103079190612f06565b60405180910390f35b61032a600480360381019061032591906126d4565b610c69565b005b61034660048036038101906103419190612620565b610ccb565b6040516103539190613196565b60405180910390f35b61037660048036038101906103719190612819565b610ce3565b6040516103839190612f06565b60405180910390f35b6103a660048036038101906103a19190612819565b610e01565b6040516103b39190612f06565b60405180910390f35b6103c4610f53565b005b6103e060048036038101906103db9190612649565b61126b565b6040516103ed9190612eeb565b60405180910390f35b60007f80ac58cd000000000000000000000000000000000000000000000000000000007bffffffffffffffffffffffffffffffffffffffffffffffffffffffff1916827bffffffffffffffffffffffffffffffffffffffffffffffffffffffff191614806104c157507f5b5e139f000000000000000000000000000000000000000000000000000000007bffffffffffffffffffffffffffffffffffffffffffffffffffffffff1916827bffffffffffffffffffffffffffffffffffffffffffffffffffffffff1916145b806104d157506104d082611398565b5b9050919050565b6000806104e56007611402565b90508091505090565b6060600080546104fd9061342a565b80601f01602080910402602001604051908101604052809291908181526020018280546105299061342a565b80156105765780601f1061054b57610100808354040283529160200191610576565b820191906000526020600020905b81548152906001019060200180831161055957829003601f168201915b5050505050905090565b600061058b82611410565b6105ca576040517f08c379a00000000000000000000000000000000000000000000000000000000081526004016105c190613116565b60405180910390fd5b6004600083815260200190815260200160002060009054906101000a900473ffffffffffffffffffffffffffffffffffffffff169050919050565b600061061082610939565b90508073ffffffffffffffffffffffffffffffffffffffff168373ffffffffffffffffffffffffffffffffffffffff161415610681576040517f08c379a000000000000000000000000000000000000000000000000000000000815260040161067890613156565b60405180910390fd5b8073ffffffffffffffffffffffffffffffffffffffff166106a061147c565b73ffffffffffffffffffffffffffffffffffffffff1614806106cf57506106ce816106c961147c565b61126b565b5b61070e576040517f08c379a000000000000000000000000000000000000000000000000000000000815260040161070590613056565b60405180910390fd5b6107188383611484565b505050565b61072e61072861147c565b8261153d565b61076d576040517f08c379a000000000000000000000000000000000000000000000000000000000815260040161076490613176565b60405180910390fd5b61077883838361161b565b505050565b606060006107b161078d84611882565b60405160200161079d9190612e17565b604051602081830303815290604052611a2f565b90506107f26040518060400160405280600b81526020017f72616e6420736565643a2000000000000000000000000000000000000000000081525082611a62565b6009805490508161080391906134d6565b90506108446040518060400160405280601181526020017f72616e6420666972737420776f72643a2000000000000000000000000000000081525082611a62565b6009818154811061087e577f4e487b7100000000000000000000000000000000000000000000000000000000600052603260045260246000fd5b9060005260206000200180546108939061342a565b80601f01602080910402602001604051908101604052809291908181526020018280546108bf9061342a565b801561090c5780601f106108e15761010080835404028352916020019161090c565b820191906000526020600020905b8154815290600101906020018083116108ef57829003601f168201915b5050505050915050919050565b61093483838360405180602001604052806000815250610c69565b505050565b6000806002600084815260200190815260200160002060009054906101000a900473ffffffffffffffffffffffffffffffffffffffff169050600073ffffffffffffffffffffffffffffffffffffffff168173ffffffffffffffffffffffffffffffffffffffff1614156109e2576040517f08c379a00000000000000000000000000000000000000000000000000000000081526004016109d990613096565b60405180910390fd5b80915050919050565b60008073ffffffffffffffffffffffffffffffffffffffff168273ffffffffffffffffffffffffffffffffffffffff161415610a5c576040517f08c379a0000000000000000000000000000000000000000000000000000000008152600401610a5390613076565b60405180910390fd5b600360008373ffffffffffffffffffffffffffffffffffffffff1673ffffffffffffffffffffffffffffffffffffffff168152602001908152602001600020549050919050565b606060018054610ab29061342a565b80601f0160208091040260200160405190810160405280929190818152602001828054610ade9061342a565b8015610b2b5780601f10610b0057610100808354040283529160200191610b2b565b820191906000526020600020905b815481529060010190602001808311610b0e57829003601f168201915b5050505050905090565b610b47610b4061147c565b8383611afe565b5050565b60606000610b7f610b5b84611882565b604051602001610b6b9190612db0565b604051602081830303815290604052611a2f565b9050600a8054905081610b9291906134d6565b9050600a8181548110610bce577f4e487b7100000000000000000000000000000000000000000000000000000000600052603260045260246000fd5b906000526020600020018054610be39061342a565b80601f0160208091040260200160405190810160405280929190818152602001828054610c0f9061342a565b8015610c5c5780601f10610c3157610100808354040283529160200191610c5c565b820191906000526020600020905b815481529060010190602001808311610c3f57829003601f168201915b5050505050915050919050565b610c7a610c7461147c565b8361153d565b610cb9576040517f08c379a0000000000000000000000000000000000000000000000000000000008152600401610cb090613176565b60405180910390fd5b610cc584848484611c6b565b50505050565b600c6020528060005260406000206000915090505481565b60606000610d17610cf384611882565b604051602001610d039190612d8e565b604051602081830303815290604052611a2f565b9050600b8054905081610d2a91906134d6565b9050600b8181548110610d66577f4e487b7100000000000000000000000000000000000000000000000000000000600052603260045260246000fd5b906000526020600020018054610d7b9061342a565b80601f0160208091040260200160405190810160405280929190818152602001828054610da79061342a565b8015610df45780601f10610dc957610100808354040283529160200191610df4565b820191906000526020600020905b815481529060010190602001808311610dd757829003601f168201915b5050505050915050919050565b6060610e0c82611410565b610e4b576040517f08c379a0000000000000000000000000000000000000000000000000000000008152600401610e42906130f6565b60405180910390fd5b6000600660008481526020019081526020016000208054610e6b9061342a565b80601f0160208091040260200160405190810160405280929190818152602001828054610e979061342a565b8015610ee45780601f10610eb957610100808354040283529160200191610ee4565b820191906000526020600020905b815481529060010190602001808311610ec757829003601f168201915b505050505090506000610ef5611cc7565b9050600081511415610f0b578192505050610f4e565b600082511115610f40578082604051602001610f28929190612cf0565b60405160208183030381529060405292505050610f4e565b610f4984611cde565b925050505b919050565b6001600c60003373ffffffffffffffffffffffffffffffffffffffff1673ffffffffffffffffffffffffffffffffffffffff168152602001908152602001600020541415610fa057600080fd5b6014610fac6007611402565b10610fb657600080fd5b6000610fc26007611402565b90506000610fcf8261077d565b90506000610fdc83610b4b565b90506000610fe984610ce3565b9050600083838360405160200161100293929190612d14565b60405160208183030381529060405290506000600885858560405160200161102d9493929190612d45565b604051602081830303815290604052905061107c6040518060400160405280601781526020017f0a2d2d2d2d2d2d2d53564720646174612d2d2d2d2d2d2d0000000000000000008152506112ff565b611085816112ff565b6110c36040518060400160405280601581526020017f2d2d2d2d2d2d2d2d2d2d2d2d2d2d2d2d2d2d2d2d0a00000000000000000000008152506112ff565b60006110f7836110d284611d85565b6040516020016110e3929190612dd2565b604051602081830303815290604052611d85565b905060008160405160200161110c9190612e39565b604051602081830303815290604052905061115b6040518060400160405280601581526020017f0a2d2d2d2d2d20546f6b656e20555249202d2d2d2d00000000000000000000008152506112ff565b611164816112ff565b6111a26040518060400160405280601581526020017f2d2d2d2d2d2d2d2d2d2d2d2d2d2d2d2d2d2d2d2d0a00000000000000000000008152506112ff565b6111ac3389611f43565b6111b68882611f61565b6111d9604051806060016040528060258152602001613c69602591398933611fd5565b6111e36007612074565b6001600c60003373ffffffffffffffffffffffffffffffffffffffff1673ffffffffffffffffffffffffffffffffffffffff168152602001908152602001600020819055507febb98688741ffa4c7589bf325de30cf7becb63de567842e1ccdb6cb949fdc82c3389604051611259929190612ec2565b60405180910390a15050505050505050565b6000600560008473ffffffffffffffffffffffffffffffffffffffff1673ffffffffffffffffffffffffffffffffffffffff16815260200190815260200160002060008373ffffffffffffffffffffffffffffffffffffffff1673ffffffffffffffffffffffffffffffffffffffff16815260200190815260200160002060009054906101000a900460ff16905092915050565b611395816040516024016113139190612f06565b6040516020818303038152906040527f41304fac000000000000000000000000000000000000000000000000000000007bffffffffffffffffffffffffffffffffffffffffffffffffffffffff19166020820180517bffffffffffffffffffffffffffffffffffffffffffffffffffffffff838183161783525050505061208a565b50565b60007f01ffc9a7000000000000000000000000000000000000000000000000000000007bffffffffffffffffffffffffffffffffffffffffffffffffffffffff1916827bffffffffffffffffffffffffffffffffffffffffffffffffffffffff1916149050919050565b600081600001549050919050565b60008073ffffffffffffffffffffffffffffffffffffffff166002600084815260200190815260200160002060009054906101000a900473ffffffffffffffffffffffffffffffffffffffff1673ffffffffffffffffffffffffffffffffffffffff1614159050919050565b600033905090565b816004600083815260200190815260200160002060006101000a81548173ffffffffffffffffffffffffffffffffffffffff021916908373ffffffffffffffffffffffffffffffffffffffff160217905550808273ffffffffffffffffffffffffffffffffffffffff166114f783610939565b73ffffffffffffffffffffffffffffffffffffffff167f8c5be1e5ebec7d5bd14f71427d1e84f3dd0314c0f7b2291e5b200ac8c7c3b92560405160405180910390a45050565b600061154882611410565b611587576040517f08c379a000000000000000000000000000000000000000000000000000000000815260040161157e90613036565b60405180910390fd5b600061159283610939565b90508073ffffffffffffffffffffffffffffffffffffffff168473ffffffffffffffffffffffffffffffffffffffff16148061160157508373ffffffffffffffffffffffffffffffffffffffff166115e984610580565b73ffffffffffffffffffffffffffffffffffffffff16145b806116125750611611818561126b565b5b91505092915050565b8273ffffffffffffffffffffffffffffffffffffffff1661163b82610939565b73ffffffffffffffffffffffffffffffffffffffff1614611691576040517f08c379a000000000000000000000000000000000000000000000000000000000815260040161168890612fb6565b60405180910390fd5b600073ffffffffffffffffffffffffffffffffffffffff168273ffffffffffffffffffffffffffffffffffffffff161415611701576040517f08c379a00000000000000000000000000000000000000000000000000000000081526004016116f890612ff6565b60405180910390fd5b61170c8383836120b3565b611717600082611484565b6001600360008573ffffffffffffffffffffffffffffffffffffffff1673ffffffffffffffffffffffffffffffffffffffff16815260200190815260200160002060008282546117679190613340565b925050819055506001600360008473ffffffffffffffffffffffffffffffffffffffff1673ffffffffffffffffffffffffffffffffffffffff16815260200190815260200160002060008282546117be919061325f565b92505081905550816002600083815260200190815260200160002060006101000a81548173ffffffffffffffffffffffffffffffffffffffff021916908373ffffffffffffffffffffffffffffffffffffffff160217905550808273ffffffffffffffffffffffffffffffffffffffff168473ffffffffffffffffffffffffffffffffffffffff167fddf252ad1be2c89b69c2b068fc378daa952ba7f163c4a11628f55a4df523b3ef60405160405180910390a461187d8383836120b8565b505050565b606060008214156118ca576040518060400160405280600181526020017f30000000000000000000000000000000000000000000000000000000000000008152509050611a2a565b600082905060005b600082146118fc5780806118e59061348d565b915050600a826118f591906132b5565b91506118d2565b60008167ffffffffffffffff81111561193e577f4e487b7100000000000000000000000000000000000000000000000000000000600052604160045260246000fd5b6040519080825280601f01601f1916602001820160405280156119705781602001600182028036833780820191505090505b5090505b60008514611a23576001826119899190613340565b9150600a8561199891906134d6565b60306119a4919061325f565b60f81b8183815181106119e0577f4e487b7100000000000000000000000000000000000000000000000000000000600052603260045260246000fd5b60200101907effffffffffffffffffffffffffffffffffffffffffffffffffffffffffffff1916908160001a905350600a85611a1c91906132b5565b9450611974565b8093505050505b919050565b600081604051602001611a429190612cd9565b6040516020818303038152906040528051906020012060001c9050919050565b611afa8282604051602401611a78929190612f28565b6040516020818303038152906040527f9710a9d0000000000000000000000000000000000000000000000000000000007bffffffffffffffffffffffffffffffffffffffffffffffffffffffff19166020820180517bffffffffffffffffffffffffffffffffffffffffffffffffffffffff838183161783525050505061208a565b5050565b8173ffffffffffffffffffffffffffffffffffffffff168373ffffffffffffffffffffffffffffffffffffffff161415611b6d576040517f08c379a0000000000000000000000000000000000000000000000000000000008152600401611b6490613016565b60405180910390fd5b80600560008573ffffffffffffffffffffffffffffffffffffffff1673ffffffffffffffffffffffffffffffffffffffff16815260200190815260200160002060008473ffffffffffffffffffffffffffffffffffffffff1673ffffffffffffffffffffffffffffffffffffffff16815260200190815260200160002060006101000a81548160ff0219169083151502179055508173ffffffffffffffffffffffffffffffffffffffff168373ffffffffffffffffffffffffffffffffffffffff167f17307eab39ab6107e8899845ad3d59bd9653f200f220920489ca2b5937696c3183604051611c5e9190612eeb565b60405180910390a3505050565b611c7684848461161b565b611c82848484846120bd565b611cc1576040517f08c379a0000000000000000000000000000000000000000000000000000000008152600401611cb890612f96565b60405180910390fd5b50505050565b606060405180602001604052806000815250905090565b6060611ce982611410565b611d28576040517f08c379a0000000000000000000000000000000000000000000000000000000008152600401611d1f90613136565b60405180910390fd5b6000611d32611cc7565b90506000815111611d525760405180602001604052806000815250611d7d565b80611d5c84611882565b604051602001611d6d929190612cf0565b6040516020818303038152906040525b915050919050565b60606000825190506000811415611dae5760405180602001604052806000815250915050611f3e565b60006003600283611dbf919061325f565b611dc991906132b5565b6004611dd591906132e6565b90506000602082611de6919061325f565b67ffffffffffffffff811115611e25577f4e487b7100000000000000000000000000000000000000000000000000000000600052604160045260246000fd5b6040519080825280601f01601f191660200182016040528015611e575781602001600182028036833780820191505090505b5090506000604051806060016040528060408152602001613c8e604091399050600181016020830160005b86811015611efb5760038101905062ffffff818a015116603f8160121c168401518060081b905060ff603f83600c1c1686015116810190508060081b905060ff603f8360061c1686015116810190508060081b905060ff603f831686015116810190508060e01b90508084526004840193505050611e82565b506003860660018114611f155760028114611f2557611f30565b613d3d60f01b6002830352611f30565b603d60f81b60018303525b508484525050819450505050505b919050565b611f5d828260405180602001604052806000815250612254565b5050565b611f6a82611410565b611fa9576040517f08c379a0000000000000000000000000000000000000000000000000000000008152600401611fa0906130b6565b60405180910390fd5b80600660008481526020019081526020016000209080519060200190611fd09291906124ac565b505050565b61206f838383604051602401611fed93929190612f58565b6040516020818303038152906040527fe3849f79000000000000000000000000000000000000000000000000000000007bffffffffffffffffffffffffffffffffffffffffffffffffffffffff19166020820180517bffffffffffffffffffffffffffffffffffffffffffffffffffffffff838183161783525050505061208a565b505050565b6001816000016000828254019250508190555050565b60008151905060006a636f6e736f6c652e6c6f679050602083016000808483855afa5050505050565b505050565b505050565b60006120de8473ffffffffffffffffffffffffffffffffffffffff166122af565b15612247578373ffffffffffffffffffffffffffffffffffffffff1663150b7a0261210761147c565b8786866040518563ffffffff1660e01b81526004016121299493929190612e76565b602060405180830381600087803b15801561214357600080fd5b505af192505050801561217457506040513d601f19601f8201168201806040525081019061217191906127f0565b60015b6121f7573d80600081146121a4576040519150601f19603f3d011682016040523d82523d6000602084013e6121a9565b606091505b506000815114156121ef576040517f08c379a00000000000000000000000000000000000000000000000000000000081526004016121e690612f96565b60405180910390fd5b805181602001fd5b63150b7a0260e01b7bffffffffffffffffffffffffffffffffffffffffffffffffffffffff1916817bffffffffffffffffffffffffffffffffffffffffffffffffffffffff19161491505061224c565b600190505b949350505050565b61225e83836122d2565b61226b60008484846120bd565b6122aa576040517f08c379a00000000000000000000000000000000000000000000000000000000081526004016122a190612f96565b60405180910390fd5b505050565b6000808273ffffffffffffffffffffffffffffffffffffffff163b119050919050565b600073ffffffffffffffffffffffffffffffffffffffff168273ffffffffffffffffffffffffffffffffffffffff161415612342576040517f08c379a0000000000000000000000000000000000000000000000000000000008152600401612339906130d6565b60405180910390fd5b61234b81611410565b1561238b576040517f08c379a000000000000000000000000000000000000000000000000000000000815260040161238290612fd6565b60405180910390fd5b612397600083836120b3565b6001600360008473ffffffffffffffffffffffffffffffffffffffff1673ffffffffffffffffffffffffffffffffffffffff16815260200190815260200160002060008282546123e7919061325f565b92505081905550816002600083815260200190815260200160002060006101000a81548173ffffffffffffffffffffffffffffffffffffffff021916908373ffffffffffffffffffffffffffffffffffffffff160217905550808273ffffffffffffffffffffffffffffffffffffffff16600073ffffffffffffffffffffffffffffffffffffffff167fddf252ad1be2c89b69c2b068fc378daa952ba7f163c4a11628f55a4df523b3ef60405160405180910390a46124a8600083836120b8565b5050565b8280546124b89061342a565b90600052602060002090601f0160209004810192826124da5760008555612521565b82601f106124f357805160ff1916838001178555612521565b82800160010185558215612521579182015b82811115612520578251825591602001919060010190612505565b5b50905061252e9190612532565b5090565b5b8082111561254b576000816000905550600101612533565b5090565b600061256261255d846131d6565b6131b1565b90508281526020810184848401111561257a57600080fd5b6125858482856133e8565b509392505050565b60008135905061259c81613c0c565b92915050565b6000813590506125b181613c23565b92915050565b6000813590506125c681613c3a565b92915050565b6000815190506125db81613c3a565b92915050565b600082601f8301126125f257600080fd5b813561260284826020860161254f565b91505092915050565b60008135905061261a81613c51565b92915050565b60006020828403121561263257600080fd5b60006126408482850161258d565b91505092915050565b6000806040838503121561265c57600080fd5b600061266a8582860161258d565b925050602061267b8582860161258d565b9150509250929050565b60008060006060848603121561269a57600080fd5b60006126a88682870161258d565b93505060206126b98682870161258d565b92505060406126ca8682870161260b565b9150509250925092565b600080600080608085870312156126ea57600080fd5b60006126f88782880161258d565b94505060206127098782880161258d565b935050604061271a8782880161260b565b925050606085013567ffffffffffffffff81111561273757600080fd5b612743878288016125e1565b91505092959194509250565b6000806040838503121561276257600080fd5b60006127708582860161258d565b9250506020612781858286016125a2565b9150509250929050565b6000806040838503121561279e57600080fd5b60006127ac8582860161258d565b92505060206127bd8582860161260b565b9150509250929050565b6000602082840312156127d957600080fd5b60006127e7848285016125b7565b91505092915050565b60006020828403121561280257600080fd5b6000612810848285016125cc565b91505092915050565b60006020828403121561282b57600080fd5b60006128398482850161260b565b91505092915050565b61284b81613374565b82525050565b61285a81613386565b82525050565b600061286b8261321c565b6128758185613232565b93506128858185602086016133f7565b61288e816135c3565b840191505092915050565b60006128a482613227565b6128ae8185613243565b93506128be8185602086016133f7565b6128c7816135c3565b840191505092915050565b60006128dd82613227565b6128e78185613254565b93506128f78185602086016133f7565b80840191505092915050565b600081546129108161342a565b61291a8186613254565b94506001821660008114612935576001811461294657612979565b60ff19831686528186019350612979565b61294f85613207565b60005b8381101561297157815481890152600182019150602081019050612952565b838801955050505b50505092915050565b600061298f606283613254565b915061299a826135d4565b606282019050919050565b60006129b2603283613243565b91506129bd8261366f565b604082019050919050565b60006129d5602583613243565b91506129e0826136be565b604082019050919050565b60006129f8601c83613243565b9150612a038261370d565b602082019050919050565b6000612a1b600a83613254565b9150612a2682613736565b600a82019050919050565b6000612a3e602483613243565b9150612a498261375f565b604082019050919050565b6000612a61601983613243565b9150612a6c826137ae565b602082019050919050565b6000612a84600b83613254565b9150612a8f826137d7565b600b82019050919050565b6000612aa7602c83613243565b9150612ab282613800565b604082019050919050565b6000612aca600d83613254565b9150612ad58261384f565b600d82019050919050565b6000612aed603883613243565b9150612af882613878565b604082019050919050565b6000612b10602a83613243565b9150612b1b826138c7565b604082019050919050565b6000612b33602983613243565b9150612b3e82613916565b604082019050919050565b6000612b56602e83613243565b9150612b6182613965565b604082019050919050565b6000612b79600283613254565b9150612b84826139b4565b600282019050919050565b6000612b9c602083613243565b9150612ba7826139dd565b602082019050919050565b6000612bbf603183613243565b9150612bca82613a06565b604082019050919050565b6000612be2602c83613243565b9150612bed82613a55565b604082019050919050565b6000612c05602f83613243565b9150612c1082613aa4565b604082019050919050565b6000612c28600a83613254565b9150612c3382613af3565b600a82019050919050565b6000612c4b602183613243565b9150612c5682613b1c565b604082019050919050565b6000612c6e600a83613254565b9150612c7982613b6b565b600a82019050919050565b6000612c91601d83613254565b9150612c9c82613b94565b601d82019050919050565b6000612cb4603183613243565b9150612cbf82613bbd565b604082019050919050565b612cd3816133de565b82525050565b6000612ce582846128d2565b915081905092915050565b6000612cfc82856128d2565b9150612d0882846128d2565b91508190509392505050565b6000612d2082866128d2565b9150612d2c82856128d2565b9150612d3882846128d2565b9150819050949350505050565b6000612d518287612903565b9150612d5d82866128d2565b9150612d6982856128d2565b9150612d7582846128d2565b9150612d8082612abd565b915081905095945050505050565b6000612d9982612a0e565b9150612da582846128d2565b915081905092915050565b6000612dbb82612a77565b9150612dc782846128d2565b915081905092915050565b6000612ddd82612c1b565b9150612de982856128d2565b9150612df482612982565b9150612e0082846128d2565b9150612e0b82612b6c565b91508190509392505050565b6000612e2282612c61565b9150612e2e82846128d2565b915081905092915050565b6000612e4482612c84565b9150612e5082846128d2565b915081905092915050565b6000602082019050612e706000830184612842565b92915050565b6000608082019050612e8b6000830187612842565b612e986020830186612842565b612ea56040830185612cca565b8181036060830152612eb78184612860565b905095945050505050565b6000604082019050612ed76000830185612842565b612ee46020830184612cca565b9392505050565b6000602082019050612f006000830184612851565b92915050565b60006020820190508181036000830152612f208184612899565b905092915050565b60006040820190508181036000830152612f428185612899565b9050612f516020830184612cca565b9392505050565b60006060820190508181036000830152612f728186612899565b9050612f816020830185612cca565b612f8e6040830184612842565b949350505050565b60006020820190508181036000830152612faf816129a5565b9050919050565b60006020820190508181036000830152612fcf816129c8565b9050919050565b60006020820190508181036000830152612fef816129eb565b9050919050565b6000602082019050818103600083015261300f81612a31565b9050919050565b6000602082019050818103600083015261302f81612a54565b9050919050565b6000602082019050818103600083015261304f81612a9a565b9050919050565b6000602082019050818103600083015261306f81612ae0565b9050919050565b6000602082019050818103600083015261308f81612b03565b9050919050565b600060208201905081810360008301526130af81612b26565b9050919050565b600060208201905081810360008301526130cf81612b49565b9050919050565b600060208201905081810360008301526130ef81612b8f565b9050919050565b6000602082019050818103600083015261310f81612bb2565b9050919050565b6000602082019050818103600083015261312f81612bd5565b9050919050565b6000602082019050818103600083015261314f81612bf8565b9050919050565b6000602082019050818103600083015261316f81612c3e565b9050919050565b6000602082019050818103600083015261318f81612ca7565b9050919050565b60006020820190506131ab6000830184612cca565b92915050565b60006131bb6131cc565b90506131c7828261345c565b919050565b6000604051905090565b600067ffffffffffffffff8211156131f1576131f0613594565b5b6131fa826135c3565b9050602081019050919050565b60008190508160005260206000209050919050565b600081519050919050565b600081519050919050565b600082825260208201905092915050565b600082825260208201905092915050565b600081905092915050565b600061326a826133de565b9150613275836133de565b9250827fffffffffffffffffffffffffffffffffffffffffffffffffffffffffffffffff038211156132aa576132a9613507565b5b828201905092915050565b60006132c0826133de565b91506132cb836133de565b9250826132db576132da613536565b5b828204905092915050565b60006132f1826133de565b91506132fc836133de565b9250817fffffffffffffffffffffffffffffffffffffffffffffffffffffffffffffffff048311821515161561333557613334613507565b5b828202905092915050565b600061334b826133de565b9150613356836133de565b92508282101561336957613368613507565b5b828203905092915050565b600061337f826133be565b9050919050565b60008115159050919050565b60007fffffffff0000000000000000000000000000000000000000000000000000000082169050919050565b600073ffffffffffffffffffffffffffffffffffffffff82169050919050565b6000819050919050565b82818337600083830152505050565b60005b838110156134155780820151818401526020810190506133fa565b83811115613424576000848401525b50505050565b6000600282049050600182168061344257607f821691505b6020821081141561345657613455613565565b5b50919050565b613465826135c3565b810181811067ffffffffffffffff8211171561348457613483613594565b5b80604052505050565b6000613498826133de565b91507fffffffffffffffffffffffffffffffffffffffffffffffffffffffffffffffff8214156134cb576134ca613507565b5b600182019050919050565b60006134e1826133de565b91506134ec836133de565b9250826134fc576134fb613536565b5b828206905092915050565b7f4e487b7100000000000000000000000000000000000000000000000000000000600052601160045260246000fd5b7f4e487b7100000000000000000000000000000000000000000000000000000000600052601260045260246000fd5b7f4e487b7100000000000000000000000000000000000000000000000000000000600052602260045260246000fd5b7f4e487b7100000000000000000000000000000000000000000000000000000000600052604160045260246000fd5b6000601f19601f8301169050919050565b7f222c226465736372697074696f6e223a20224120686967686c79206163636c6160008201527f696d656420636f6c6c656374696f6e206f6620737175617265732e222c20226960208201527f6d616765223a2022646174613a696d6167652f7376672b786d6c3b626173653660408201527f342c000000000000000000000000000000000000000000000000000000000000606082015250565b7f4552433732313a207472616e7366657220746f206e6f6e20455243373231526560008201527f63656976657220696d706c656d656e7465720000000000000000000000000000602082015250565b7f4552433732313a207472616e736665722066726f6d20696e636f72726563742060008201527f6f776e6572000000000000000000000000000000000000000000000000000000602082015250565b7f4552433732313a20746f6b656e20616c7265616479206d696e74656400000000600082015250565b7f54484952445f574f524400000000000000000000000000000000000000000000600082015250565b7f4552433732313a207472616e7366657220746f20746865207a65726f2061646460008201527f7265737300000000000000000000000000000000000000000000000000000000602082015250565b7f4552433732313a20617070726f766520746f2063616c6c657200000000000000600082015250565b7f5345434f4e445f574f5244000000000000000000000000000000000000000000600082015250565b7f4552433732313a206f70657261746f7220717565727920666f72206e6f6e657860008201527f697374656e7420746f6b656e0000000000000000000000000000000000000000602082015250565b7f3c2f746578743e3c2f7376673e00000000000000000000000000000000000000600082015250565b7f4552433732313a20617070726f76652063616c6c6572206973206e6f74206f7760008201527f6e6572206e6f7220617070726f76656420666f7220616c6c0000000000000000602082015250565b7f4552433732313a2062616c616e636520717565727920666f7220746865207a6560008201527f726f206164647265737300000000000000000000000000000000000000000000602082015250565b7f4552433732313a206f776e657220717565727920666f72206e6f6e657869737460008201527f656e7420746f6b656e0000000000000000000000000000000000000000000000602082015250565b7f45524337323155524953746f726167653a2055524920736574206f66206e6f6e60008201527f6578697374656e7420746f6b656e000000000000000000000000000000000000602082015250565b7f227d000000000000000000000000000000000000000000000000000000000000600082015250565b7f4552433732313a206d696e7420746f20746865207a65726f2061646472657373600082015250565b7f45524337323155524953746f726167653a2055524920717565727920666f722060008201527f6e6f6e6578697374656e7420746f6b656e000000000000000000000000000000602082015250565b7f4552433732313a20617070726f76656420717565727920666f72206e6f6e657860008201527f697374656e7420746f6b656e0000000000000000000000000000000000000000602082015250565b7f4552433732314d657461646174613a2055524920717565727920666f72206e6f60008201527f6e6578697374656e7420746f6b656e0000000000000000000000000000000000602082015250565b7f7b226e616d65223a202200000000000000000000000000000000000000000000600082015250565b7f4552433732313a20617070726f76616c20746f2063757272656e74206f776e6560008201527f7200000000000000000000000000000000000000000000000000000000000000602082015250565b7f46495253545f574f524400000000000000000000000000000000000000000000600082015250565b7f646174613a6170706c69636174696f6e2f6a736f6e3b6261736536342c000000600082015250565b7f4552433732313a207472616e736665722063616c6c6572206973206e6f74206f60008201527f776e6572206e6f7220617070726f766564000000000000000000000000000000602082015250565b613c1581613374565b8114613c2057600080fd5b50565b613c2c81613386565b8114613c3757600080fd5b50565b613c4381613392565b8114613c4e57600080fd5b50565b613c5a816133de565b8114613c6557600080fd5b5056fe416e204e465420772f20494420257320686173206265656e206d696e74656420746f2025734142434445464748494a4b4c4d4e4f505152535455565758595a6162636465666768696a6b6c6d6e6f707172737475767778797a303132333435363738392b2fa264697066735822122018ec4b28ffefb8afd4339d55eea3ca2f34f8a837c2f6cff1842a31d8cae4f16a64736f6c634300080400333c73766720786d6c6e733d27687474703a2f2f7777772e77332e6f72672f323030302f73766727207072657365727665417370656374526174696f3d27784d696e594d696e206d656574272076696577426f783d273020302033353020333530273e3c7374796c653e2e62617365207b2066696c6c3a2077686974653b20666f6e742d66616d696c793a2073657269663b20666f6e742d73697a653a20323470783b207d3c2f7374796c653e3c726563742077696474683d273130302527206865696768743d2731303025272066696c6c3d27626c61636b27202f3e3c7465787420783d273530252720793d273530252720636c6173733d27626173652720646f6d696e616e742d626173656c696e653d276d6964646c652720746578742d616e63686f723d276d6964646c65273e",
  "linkReferences": {},
  "deployedLinkReferences": {}
}